{"abi":[{"type":"constructor","inputs":[{"name":"_token","type":"address","internalType":"address"}],"stateMutability":"nonpayable"},{"type":"function","name":"burnAndWithdraw","inputs":[{"name":"amount","type":"uint256","internalType":"uint256"}],"outputs":[],"stateMutability":"nonpayable"},{"type":"function","name":"cancelProject","inputs":[{"name":"projectId","type":"uint256","internalType":"uint256"}],"outputs":[],"stateMutability":"nonpayable"},{"type":"function","name":"createProject","inputs":[{"name":"worker","type":"address","internalType":"address"},{"name":"amount","type":"uint256","internalType":"uint256"}],"outputs":[],"stateMutability":"nonpayable"},{"type":"function","name":"depositAndMint","inputs":[{"name":"user","type":"address","internalType":"address"},{"name":"amount","type":"uint256","internalType":"uint256"},{"name":"razorpayPaymentId","type":"string","internalType":"string"}],"outputs":[],"stateMutability":"nonpayable"},{"type":"function","name":"getProject","inputs":[{"name":"projectId","type":"uint256","internalType":"uint256"}],"outputs":[{"name":"client","type":"address","internalType":"address"},{"name":"worker","type":"address","internalType":"address"},{"name":"amount","type":"uint256","internalType":"uint256"},{"name":"releasedAmount","type":"uint256","internalType":"uint256"},{"name":"isCompleted","type":"bool","internalType":"bool"}],"stateMutability":"view"},{"type":"function","name":"nextProjectId","inputs":[],"outputs":[{"name":"","type":"uint256","internalType":"uint256"}],"stateMutability":"view"},{"type":"function","name":"owner","inputs":[],"outputs":[{"name":"","type":"address","internalType":"address"}],"stateMutability":"view"},{"type":"function","name":"processedPayments","inputs":[{"name":"","type":"string","internalType":"string"}],"outputs":[{"name":"","type":"bool","internalType":"bool"}],"stateMutability":"view"},{"type":"function","name":"projects","inputs":[{"name":"","type":"uint256","internalType":"uint256"}],"outputs":[{"name":"client","type":"address","internalType":"address"},{"name":"worker","type":"address","internalType":"address"},{"name":"amount","type":"uint256","internalType":"uint256"},{"name":"releasedAmount","type":"uint256","internalType":"uint256"},{"name":"isCompleted","type":"bool","internalType":"bool"}],"stateMutability":"view"},{"type":"function","name":"releaseMilestonePayment","inputs":[{"name":"projectId","type":"uint256","internalType":"uint256"},{"name":"amount","type":"uint256","internalType":"uint256"}],"outputs":[],"stateMutability":"nonpayable"},{"type":"function","name":"releasePayment","inputs":[{"name":"projectId","type":"uint256","internalType":"uint256"}],"outputs":[],"stateMutability":"nonpayable"},{"type":"function","name":"renounceOwnership","inputs":[],"outputs":[],"stateMutability":"nonpayable"},{"type":"function","name":"token","inputs":[],"outputs":[{"name":"","type":"address","internalType":"contract MockUSDT"}],"stateMutability":"view"},{"type":"function","name":"transferOwnership","inputs":[{"name":"newOwner","type":"address","internalType":"address"}],"outputs":[],"stateMutability":"nonpayable"},{"type":"event","name":"MilestonePaymentReleased","inputs":[{"name":"projectId","type":"uint256","indexed":true,"internalType":"uint256"},{"name":"milestoneAmount","type":"uint256","indexed":false,"internalType":"uint256"},{"name":"totalReleased","type":"uint256","indexed":false,"internalType":"uint256"},{"name":"totalLocked","type":"uint256","indexed":false,"internalType":"uint256"}],"anonymous":false},{"type":"event","name":"OwnershipTransferred","inputs":[{"name":"previousOwner","type":"address","indexed":true,"internalType":"address"},{"name":"newOwner","type":"address","indexed":true,"internalType":"address"}],"anonymous":false},{"type":"event","name":"PaymentReleased","inputs":[{"name":"projectId","type":"uint256","indexed":true,"internalType":"uint256"},{"name":"client","type":"address","indexed":true,"internalType":"address"},{"name":"worker","type":"address","indexed":true,"internalType":"address"},{"name":"amount","type":"uint256","indexed":false,"internalType":"uint256"}],"anonymous":false},{"type":"event","name":"ProjectCancelled","inputs":[{"name":"projectId","type":"uint256","indexed":true,"internalType":"uint256"},{"name":"client","type":"address","indexed":true,"internalType":"address"},{"name":"returned","type":"uint256","indexed":false,"internalType":"uint256"}],"anonymous":false},{"type":"event","name":"ProjectCreated","inputs":[{"name":"projectId","type":"uint256","indexed":true,"internalType":"uint256"},{"name":"client","type":"address","indexed":true,"internalType":"address"},{"name":"worker","type":"address","indexed":true,"internalType":"address"},{"name":"amount","type":"uint256","indexed":false,"internalType":"uint256"}],"anonymous":false},{"type":"event","name":"TokensBurned","inputs":[{"name":"user","type":"address","indexed":true,"internalType":"address"},{"name":"amount","type":"uint256","indexed":false,"internalType":"uint256"}],"anonymous":false},{"type":"event","name":"TokensMinted","inputs":[{"name":"user","type":"address","indexed":true,"internalType":"address"},{"name":"amount","type":"uint256","indexed":false,"internalType":"uint256"},{"name":"paymentId","type":"string","indexed":false,"internalType":"string"}],"anonymous":false},{"type":"error","name":"OwnableInvalidOwner","inputs":[{"name":"owner","type":"address","internalType":"address"}]},{"type":"error","name":"OwnableUnauthorizedAccount","inputs":[{"name":"account","type":"address","internalType":"address"}]}],"bytecode":{"object":"0x608060405234801561000f575f5ffd5b5060405161221038038061221083398181016040528101906100319190610217565b335f73ffffffffffffffffffffffffffffffffffffffff168173ffffffffffffffffffffffffffffffffffffffff16036100a2575f6040517f1e4fbdf70000000000000000000000000000000000000000000000000000000081526004016100999190610251565b60405180910390fd5b6100b1816100f860201b60201c565b508060015f6101000a81548173ffffffffffffffffffffffffffffffffffffffff021916908373ffffffffffffffffffffffffffffffffffffffff1602179055505061026a565b5f5f5f9054906101000a900473ffffffffffffffffffffffffffffffffffffffff169050815f5f6101000a81548173ffffffffffffffffffffffffffffffffffffffff021916908373ffffffffffffffffffffffffffffffffffffffff1602179055508173ffffffffffffffffffffffffffffffffffffffff168173ffffffffffffffffffffffffffffffffffffffff167f8be0079c531659141344cd1fd0a4f28419497f9722a3daafe3b4186f6b6457e060405160405180910390a35050565b5f5ffd5b5f73ffffffffffffffffffffffffffffffffffffffff82169050919050565b5f6101e6826101bd565b9050919050565b6101f6816101dc565b8114610200575f5ffd5b50565b5f81519050610211816101ed565b92915050565b5f6020828403121561022c5761022b6101b9565b5b5f61023984828501610203565b91505092915050565b61024b816101dc565b82525050565b5f6020820190506102645f830184610242565b92915050565b611f99806102775f395ff3fe608060405234801561000f575f5ffd5b50600436106100e8575f3560e01c80638da5cb5b1161008a578063e935b7b111610064578063e935b7b114610220578063f0f3f2c81461023e578063f2fde38b14610272578063fc0c546a1461028e576100e8565b80638da5cb5b146101b65780639b931abf146101d4578063e82d657214610204576100e8565b8063715018a6116100c6578063715018a6146101585780637c695cc11461016257806388685cd91461017e5780638c936e651461019a576100e8565b8063107046bd146100ec57806324941147146101205780635990765a1461013c575b5f5ffd5b6101066004803603810190610101919061152e565b6102ac565b6040516101179594939291906115c1565b60405180910390f35b61013a6004803603810190610135919061152e565b610328565b005b6101566004803603810190610151919061169d565b610609565b005b610160610797565b005b61017c6004803603810190610177919061152e565b6107aa565b005b6101986004803603810190610193919061152e565b610884565b005b6101b460048036038101906101af919061170e565b610bf9565b005b6101be610ee2565b6040516101cb919061174c565b60405180910390f35b6101ee60048036038101906101e9919061189d565b610f09565b6040516101fb91906118e4565b60405180910390f35b61021e600480360381019061021991906118fd565b610f3e565b005b6102286111c5565b604051610235919061193b565b60405180910390f35b6102586004803603810190610253919061152e565b6111cb565b6040516102699594939291906115c1565b60405180910390f35b61028c60048036038101906102879190611954565b6112f2565b005b610296611376565b6040516102a391906119da565b60405180910390f35b6003602052805f5260405f205f91509050805f015f9054906101000a900473ffffffffffffffffffffffffffffffffffffffff1690806001015f9054906101000a900473ffffffffffffffffffffffffffffffffffffffff1690806002015490806003015490806004015f9054906101000a900460ff16905085565b5f60035f8381526020019081526020015f209050806004015f9054906101000a900460ff161561038d576040517f08c379a000000000000000000000000000000000000000000000000000000000815260040161038490611a4d565b60405180910390fd5b805f015f9054906101000a900473ffffffffffffffffffffffffffffffffffffffff1673ffffffffffffffffffffffffffffffffffffffff163373ffffffffffffffffffffffffffffffffffffffff16148061041b57506103ec610ee2565b73ffffffffffffffffffffffffffffffffffffffff163373ffffffffffffffffffffffffffffffffffffffff16145b61045a576040517f08c379a000000000000000000000000000000000000000000000000000000000815260040161045190611ab5565b60405180910390fd5b6001816004015f6101000a81548160ff0219169083151502179055505f8160030154826002015461048b9190611b00565b90505f8111156105935760015f9054906101000a900473ffffffffffffffffffffffffffffffffffffffff1673ffffffffffffffffffffffffffffffffffffffff1663a9059cbb835f015f9054906101000a900473ffffffffffffffffffffffffffffffffffffffff16836040518363ffffffff1660e01b8152600401610513929190611b33565b6020604051808303815f875af115801561052f573d5f5f3e3d5ffd5b505050506040513d601f19601f820116820180604052508101906105539190611b84565b610592576040517f08c379a000000000000000000000000000000000000000000000000000000000815260040161058990611bf9565b60405180910390fd5b5b815f015f9054906101000a900473ffffffffffffffffffffffffffffffffffffffff1673ffffffffffffffffffffffffffffffffffffffff16837f6894ebf397cf5588c5a8361c9f361b0ee85f82f695d4964664f624fc958e51e7836040516105fc919061193b565b60405180910390a3505050565b61061161139b565b60048282604051610623929190611c45565b90815260200160405180910390205f9054906101000a900460ff161561067e576040517f08c379a000000000000000000000000000000000000000000000000000000000815260040161067590611ca7565b60405180910390fd5b600160048383604051610692929190611c45565b90815260200160405180910390205f6101000a81548160ff02191690831515021790555060015f9054906101000a900473ffffffffffffffffffffffffffffffffffffffff1673ffffffffffffffffffffffffffffffffffffffff166340c10f1985856040518363ffffffff1660e01b8152600401610712929190611b33565b5f604051808303815f87803b158015610729575f5ffd5b505af115801561073b573d5f5f3e3d5ffd5b505050508373ffffffffffffffffffffffffffffffffffffffff167f9d89e36eadf856db0ad9ffb5a569e07f95634dddd9501141ecf04820484ad0dc84848460405161078993929190611cf1565b60405180910390a250505050565b61079f61139b565b6107a85f611422565b565b60015f9054906101000a900473ffffffffffffffffffffffffffffffffffffffff1673ffffffffffffffffffffffffffffffffffffffff16639dc29fac33836040518363ffffffff1660e01b8152600401610806929190611b33565b5f604051808303815f87803b15801561081d575f5ffd5b505af115801561082f573d5f5f3e3d5ffd5b505050503373ffffffffffffffffffffffffffffffffffffffff167ffd38818f5291bf0bb3a2a48aadc06ba8757865d1dabd804585338aab3009dcb682604051610879919061193b565b60405180910390a250565b5f60035f8381526020019081526020015f209050806004015f9054906101000a900460ff16156108e9576040517f08c379a00000000000000000000000000000000000000000000000000000000081526004016108e090611d6b565b60405180910390fd5b805f015f9054906101000a900473ffffffffffffffffffffffffffffffffffffffff1673ffffffffffffffffffffffffffffffffffffffff163373ffffffffffffffffffffffffffffffffffffffff1614806109775750610948610ee2565b73ffffffffffffffffffffffffffffffffffffffff163373ffffffffffffffffffffffffffffffffffffffff16145b806109d05750806001015f9054906101000a900473ffffffffffffffffffffffffffffffffffffffff1673ffffffffffffffffffffffffffffffffffffffff163373ffffffffffffffffffffffffffffffffffffffff16145b610a0f576040517f08c379a0000000000000000000000000000000000000000000000000000000008152600401610a0690611ab5565b60405180910390fd5b6001816004015f6101000a81548160ff0219169083151502179055505f81600301548260020154610a409190611b00565b90505f811115610b495760015f9054906101000a900473ffffffffffffffffffffffffffffffffffffffff1673ffffffffffffffffffffffffffffffffffffffff1663a9059cbb836001015f9054906101000a900473ffffffffffffffffffffffffffffffffffffffff16836040518363ffffffff1660e01b8152600401610ac9929190611b33565b6020604051808303815f875af1158015610ae5573d5f5f3e3d5ffd5b505050506040513d601f19601f82011682018060405250810190610b099190611b84565b610b48576040517f08c379a0000000000000000000000000000000000000000000000000000000008152600401610b3f90611bf9565b60405180910390fd5b5b816001015f9054906101000a900473ffffffffffffffffffffffffffffffffffffffff1673ffffffffffffffffffffffffffffffffffffffff16825f015f9054906101000a900473ffffffffffffffffffffffffffffffffffffffff1673ffffffffffffffffffffffffffffffffffffffff16847f23a1f1d698899279655350f84344b87245426099e1c060807bd35275582d2d0e84604051610bec919061193b565b60405180910390a4505050565b5f60035f8481526020019081526020015f209050806004015f9054906101000a900460ff1615610c5e576040517f08c379a0000000000000000000000000000000000000000000000000000000008152600401610c5590611a4d565b60405180910390fd5b805f015f9054906101000a900473ffffffffffffffffffffffffffffffffffffffff1673ffffffffffffffffffffffffffffffffffffffff163373ffffffffffffffffffffffffffffffffffffffff161480610cec5750610cbd610ee2565b73ffffffffffffffffffffffffffffffffffffffff163373ffffffffffffffffffffffffffffffffffffffff16145b610d2b576040517f08c379a0000000000000000000000000000000000000000000000000000000008152600401610d2290611df9565b60405180910390fd5b8060020154828260030154610d409190611e17565b1115610d81576040517f08c379a0000000000000000000000000000000000000000000000000000000008152600401610d7890611e94565b60405180910390fd5b81816003015f828254610d949190611e17565b9250508190555060015f9054906101000a900473ffffffffffffffffffffffffffffffffffffffff1673ffffffffffffffffffffffffffffffffffffffff1663a9059cbb826001015f9054906101000a900473ffffffffffffffffffffffffffffffffffffffff16846040518363ffffffff1660e01b8152600401610e1a929190611b33565b6020604051808303815f875af1158015610e36573d5f5f3e3d5ffd5b505050506040513d601f19601f82011682018060405250810190610e5a9190611b84565b610e99576040517f08c379a0000000000000000000000000000000000000000000000000000000008152600401610e9090611bf9565b60405180910390fd5b827ff588ed5d413a10985a2551355e5a4072baa491c13eac698ab7299439f0cac57f8383600301548460020154604051610ed593929190611eb2565b60405180910390a2505050565b5f5f5f9054906101000a900473ffffffffffffffffffffffffffffffffffffffff16905090565b6004818051602081018201805184825260208301602085012081835280955050505050505f915054906101000a900460ff1681565b5f60025f815480929190610f5190611ee7565b9190505590506040518060a001604052803373ffffffffffffffffffffffffffffffffffffffff1681526020018473ffffffffffffffffffffffffffffffffffffffff1681526020018381526020015f81526020015f151581525060035f8381526020019081526020015f205f820151815f015f6101000a81548173ffffffffffffffffffffffffffffffffffffffff021916908373ffffffffffffffffffffffffffffffffffffffff1602179055506020820151816001015f6101000a81548173ffffffffffffffffffffffffffffffffffffffff021916908373ffffffffffffffffffffffffffffffffffffffff16021790555060408201518160020155606082015181600301556080820151816004015f6101000a81548160ff02191690831515021790555090505060015f9054906101000a900473ffffffffffffffffffffffffffffffffffffffff1673ffffffffffffffffffffffffffffffffffffffff166323b872dd3330856040518463ffffffff1660e01b81526004016110db93929190611f2e565b6020604051808303815f875af11580156110f7573d5f5f3e3d5ffd5b505050506040513d601f19601f8201168201806040525081019061111b9190611b84565b61115a576040517f08c379a000000000000000000000000000000000000000000000000000000000815260040161115190611bf9565b60405180910390fd5b8273ffffffffffffffffffffffffffffffffffffffff163373ffffffffffffffffffffffffffffffffffffffff16827ff03bc2e49a83d942284cb30e1c2935d4b542e1e1e6456d28b5365ddb110a52a2856040516111b8919061193b565b60405180910390a4505050565b60025481565b5f5f5f5f5f5f60035f8881526020019081526020015f206040518060a00160405290815f82015f9054906101000a900473ffffffffffffffffffffffffffffffffffffffff1673ffffffffffffffffffffffffffffffffffffffff1673ffffffffffffffffffffffffffffffffffffffff168152602001600182015f9054906101000a900473ffffffffffffffffffffffffffffffffffffffff1673ffffffffffffffffffffffffffffffffffffffff1673ffffffffffffffffffffffffffffffffffffffff1681526020016002820154815260200160038201548152602001600482015f9054906101000a900460ff1615151515815250509050805f01518160200151826040015183606001518460800151955095509550955095505091939590929450565b6112fa61139b565b5f73ffffffffffffffffffffffffffffffffffffffff168173ffffffffffffffffffffffffffffffffffffffff160361136a575f6040517f1e4fbdf7000000000000000000000000000000000000000000000000000000008152600401611361919061174c565b60405180910390fd5b61137381611422565b50565b60015f9054906101000a900473ffffffffffffffffffffffffffffffffffffffff1681565b6113a36114e3565b73ffffffffffffffffffffffffffffffffffffffff166113c1610ee2565b73ffffffffffffffffffffffffffffffffffffffff1614611420576113e46114e3565b6040517f118cdaa7000000000000000000000000000000000000000000000000000000008152600401611417919061174c565b60405180910390fd5b565b5f5f5f9054906101000a900473ffffffffffffffffffffffffffffffffffffffff169050815f5f6101000a81548173ffffffffffffffffffffffffffffffffffffffff021916908373ffffffffffffffffffffffffffffffffffffffff1602179055508173ffffffffffffffffffffffffffffffffffffffff168173ffffffffffffffffffffffffffffffffffffffff167f8be0079c531659141344cd1fd0a4f28419497f9722a3daafe3b4186f6b6457e060405160405180910390a35050565b5f33905090565b5f604051905090565b5f5ffd5b5f5ffd5b5f819050919050565b61150d816114fb565b8114611517575f5ffd5b50565b5f8135905061152881611504565b92915050565b5f60208284031215611543576115426114f3565b5b5f6115508482850161151a565b91505092915050565b5f73ffffffffffffffffffffffffffffffffffffffff82169050919050565b5f61158282611559565b9050919050565b61159281611578565b82525050565b6115a1816114fb565b82525050565b5f8115159050919050565b6115bb816115a7565b82525050565b5f60a0820190506115d45f830188611589565b6115e16020830187611589565b6115ee6040830186611598565b6115fb6060830185611598565b61160860808301846115b2565b9695505050505050565b61161b81611578565b8114611625575f5ffd5b50565b5f8135905061163681611612565b92915050565b5f5ffd5b5f5ffd5b5f5ffd5b5f5f83601f84011261165d5761165c61163c565b5b8235905067ffffffffffffffff81111561167a57611679611640565b5b60208301915083600182028301111561169657611695611644565b5b9250929050565b5f5f5f5f606085870312156116b5576116b46114f3565b5b5f6116c287828801611628565b94505060206116d38782880161151a565b935050604085013567ffffffffffffffff8111156116f4576116f36114f7565b5b61170087828801611648565b925092505092959194509250565b5f5f60408385031215611724576117236114f3565b5b5f6117318582860161151a565b92505060206117428582860161151a565b9150509250929050565b5f60208201905061175f5f830184611589565b92915050565b5f5ffd5b5f601f19601f8301169050919050565b7f4e487b71000000000000000000000000000000000000000000000000000000005f52604160045260245ffd5b6117af82611769565b810181811067ffffffffffffffff821117156117ce576117cd611779565b5b80604052505050565b5f6117e06114ea565b90506117ec82826117a6565b919050565b5f67ffffffffffffffff82111561180b5761180a611779565b5b61181482611769565b9050602081019050919050565b828183375f83830152505050565b5f61184161183c846117f1565b6117d7565b90508281526020810184848401111561185d5761185c611765565b5b611868848285611821565b509392505050565b5f82601f8301126118845761188361163c565b5b813561189484826020860161182f565b91505092915050565b5f602082840312156118b2576118b16114f3565b5b5f82013567ffffffffffffffff8111156118cf576118ce6114f7565b5b6118db84828501611870565b91505092915050565b5f6020820190506118f75f8301846115b2565b92915050565b5f5f60408385031215611913576119126114f3565b5b5f61192085828601611628565b92505060206119318582860161151a565b9150509250929050565b5f60208201905061194e5f830184611598565b92915050565b5f60208284031215611969576119686114f3565b5b5f61197684828501611628565b91505092915050565b5f819050919050565b5f6119a261199d61199884611559565b61197f565b611559565b9050919050565b5f6119b382611988565b9050919050565b5f6119c4826119a9565b9050919050565b6119d4816119ba565b82525050565b5f6020820190506119ed5f8301846119cb565b92915050565b5f82825260208201905092915050565b7f50726f6a65637420616c726561647920636f6d706c65746564000000000000005f82015250565b5f611a376019836119f3565b9150611a4282611a03565b602082019050919050565b5f6020820190508181035f830152611a6481611a2b565b9050919050565b7f4e6f7420617574686f72697a65640000000000000000000000000000000000005f82015250565b5f611a9f600e836119f3565b9150611aaa82611a6b565b602082019050919050565b5f6020820190508181035f830152611acc81611a93565b9050919050565b7f4e487b71000000000000000000000000000000000000000000000000000000005f52601160045260245ffd5b5f611b0a826114fb565b9150611b15836114fb565b9250828203905081811115611b2d57611b2c611ad3565b5b92915050565b5f604082019050611b465f830185611589565b611b536020830184611598565b9392505050565b611b63816115a7565b8114611b6d575f5ffd5b50565b5f81519050611b7e81611b5a565b92915050565b5f60208284031215611b9957611b986114f3565b5b5f611ba684828501611b70565b91505092915050565b7f5472616e73666572206661696c656400000000000000000000000000000000005f82015250565b5f611be3600f836119f3565b9150611bee82611baf565b602082019050919050565b5f6020820190508181035f830152611c1081611bd7565b9050919050565b5f81905092915050565b5f611c2c8385611c17565b9350611c39838584611821565b82840190509392505050565b5f611c51828486611c21565b91508190509392505050565b7f5061796d656e7420616c72656164792070726f636573736564000000000000005f82015250565b5f611c916019836119f3565b9150611c9c82611c5d565b602082019050919050565b5f6020820190508181035f830152611cbe81611c85565b9050919050565b5f611cd083856119f3565b9350611cdd838584611821565b611ce683611769565b840190509392505050565b5f604082019050611d045f830186611598565b8181036020830152611d17818486611cc5565b9050949350505050565b7f416c726561647920636f6d706c657465640000000000000000000000000000005f82015250565b5f611d556011836119f3565b9150611d6082611d21565b602082019050919050565b5f6020820190508181035f830152611d8281611d49565b9050919050565b7f4e6f7420617574686f72697a65643a206f6e6c7920636c69656e74206f72206f5f8201527f776e657200000000000000000000000000000000000000000000000000000000602082015250565b5f611de36024836119f3565b9150611dee82611d89565b604082019050919050565b5f6020820190508181035f830152611e1081611dd7565b9050919050565b5f611e21826114fb565b9150611e2c836114fb565b9250828201905080821115611e4457611e43611ad3565b5b92915050565b7f45786365656473206c6f636b656420657363726f7720616d6f756e74000000005f82015250565b5f611e7e601c836119f3565b9150611e8982611e4a565b602082019050919050565b5f6020820190508181035f830152611eab81611e72565b9050919050565b5f606082019050611ec55f830186611598565b611ed26020830185611598565b611edf6040830184611598565b949350505050565b5f611ef1826114fb565b91507fffffffffffffffffffffffffffffffffffffffffffffffffffffffffffffffff8203611f2357611f22611ad3565b5b600182019050919050565b5f606082019050611f415f830186611589565b611f4e6020830185611589565b611f5b6040830184611598565b94935050505056fea26469706673582212203dc149c16b335dda3ad1e02e03e46f6aca36d7c2fc27d6a92c0de7f93dd0847b64736f6c63430008210033","linkReferences":{}},"methodIdentifiers":{"burnAndWithdraw(uint256)":"7c695cc1","cancelProject(uint256)":"24941147","createProject(address,uint256)":"e82d6572","depositAndMint(address,uint256,string)":"5990765a","getProject(uint256)":"f0f3f2c8","nextProjectId()":"e935b7b1","owner()":"8da5cb5b","processedPayments(string)":"9b931abf","projects(uint256)":"107046bd","releaseMilestonePayment(uint256,uint256)":"8c936e65","releasePayment(uint256)":"88685cd9","renounceOwnership()":"715018a6","token()":"fc0c546a","transferOwnership(address)":"f2fde38b"},"id":22}