{"abi":[{"type":"constructor","inputs":[{"name":"_token","type":"address","internalType":"address"}],"stateMutability":"nonpayable"},{"type":"function","name":"burnAndWithdraw","inputs":[{"name":"amount","type":"uint256","internalType":"uint256"}],"outputs":[],"stateMutability":"nonpayable"},{"type":"function","name":"createProject","inputs":[{"name":"worker","type":"address","internalType":"address"},{"name":"amount","type":"uint256","internalType":"uint256"}],"outputs":[],"stateMutability":"nonpayable"},{"type":"function","name":"depositAndMint","inputs":[{"name":"user","type":"address","internalType":"address"},{"name":"amount","type":"uint256","internalType":"uint256"},{"name":"razorpayPaymentId","type":"string","internalType":"string"}],"outputs":[],"stateMutability":"nonpayable"},{"type":"function","name":"getProject","inputs":[{"name":"projectId","type":"uint256","internalType":"uint256"}],"outputs":[{"name":"client","type":"address","internalType":"address"},{"name":"worker","type":"address","internalType":"address"},{"name":"amount","type":"uint256","internalType":"uint256"},{"name":"isCompleted","type":"bool","internalType":"bool"}],"stateMutability":"view"},{"type":"function","name":"nextProjectId","inputs":[],"outputs":[{"name":"","type":"uint256","internalType":"uint256"}],"stateMutability":"view"},{"type":"function","name":"owner","inputs":[],"outputs":[{"name":"","type":"address","internalType":"address"}],"stateMutability":"view"},{"type":"function","name":"processedPayments","inputs":[{"name":"","type":"string","internalType":"string"}],"outputs":[{"name":"","type":"bool","internalType":"bool"}],"stateMutability":"view"},{"type":"function","name":"projects","inputs":[{"name":"","type":"uint256","internalType":"uint256"}],"outputs":[{"name":"client","type":"address","internalType":"address"},{"name":"worker","type":"address","internalType":"address"},{"name":"amount","type":"uint256","internalType":"uint256"},{"name":"isCompleted","type":"bool","internalType":"bool"}],"stateMutability":"view"},{"type":"function","name":"releasePayment","inputs":[{"name":"projectId","type":"uint256","internalType":"uint256"}],"outputs":[],"stateMutability":"nonpayable"},{"type":"function","name":"renounceOwnership","inputs":[],"outputs":[],"stateMutability":"nonpayable"},{"type":"function","name":"token","inputs":[],"outputs":[{"name":"","type":"address","internalType":"contract MockUSDT"}],"stateMutability":"view"},{"type":"function","name":"transferOwnership","inputs":[{"name":"newOwner","type":"address","internalType":"address"}],"outputs":[],"stateMutability":"nonpayable"},{"type":"event","name":"OwnershipTransferred","inputs":[{"name":"previousOwner","type":"address","indexed":true,"internalType":"address"},{"name":"newOwner","type":"address","indexed":true,"internalType":"address"}],"anonymous":false},{"type":"event","name":"PaymentReleased","inputs":[{"name":"projectId","type":"uint256","indexed":true,"internalType":"uint256"},{"name":"client","type":"address","indexed":true,"internalType":"address"},{"name":"worker","type":"address","indexed":true,"internalType":"address"},{"name":"amount","type":"uint256","indexed":false,"internalType":"uint256"}],"anonymous":false},{"type":"event","name":"ProjectCreated","inputs":[{"name":"projectId","type":"uint256","indexed":true,"internalType":"uint256"},{"name":"client","type":"address","indexed":true,"internalType":"address"},{"name":"worker","type":"address","indexed":true,"internalType":"address"},{"name":"amount","type":"uint256","indexed":false,"internalType":"uint256"}],"anonymous":false},{"type":"event","name":"TokensBurned","inputs":[{"name":"user","type":"address","indexed":true,"internalType":"address"},{"name":"amount","type":"uint256","indexed":false,"internalType":"uint256"}],"anonymous":false},{"type":"event","name":"TokensMinted","inputs":[{"name":"user","type":"address","indexed":true,"internalType":"address"},{"name":"amount","type":"uint256","indexed":false,"internalType":"uint256"},{"name":"paymentId","type":"string","indexed":false,"internalType":"string"}],"anonymous":false},{"type":"error","name":"OwnableInvalidOwner","inputs":[{"name":"owner","type":"address","internalType":"address"}]},{"type":"error","name":"OwnableUnauthorizedAccount","inputs":[{"name":"account","type":"address","internalType":"address"}]}],"bytecode":{"object":"0x608060405234801561000f575f5ffd5b5060405161194e38038061194e83398181016040528101906100319190610217565b335f73ffffffffffffffffffffffffffffffffffffffff168173ffffffffffffffffffffffffffffffffffffffff16036100a2575f6040517f1e4fbdf70000000000000000000000000000000000000000000000000000000081526004016100999190610251565b60405180910390fd5b6100b1816100f860201b60201c565b508060015f6101000a81548173ffffffffffffffffffffffffffffffffffffffff021916908373ffffffffffffffffffffffffffffffffffffffff1602179055505061026a565b5f5f5f9054906101000a900473ffffffffffffffffffffffffffffffffffffffff169050815f5f6101000a81548173ffffffffffffffffffffffffffffffffffffffff021916908373ffffffffffffffffffffffffffffffffffffffff1602179055508173ffffffffffffffffffffffffffffffffffffffff168173ffffffffffffffffffffffffffffffffffffffff167f8be0079c531659141344cd1fd0a4f28419497f9722a3daafe3b4186f6b6457e060405160405180910390a35050565b5f5ffd5b5f73ffffffffffffffffffffffffffffffffffffffff82169050919050565b5f6101e6826101bd565b9050919050565b6101f6816101dc565b8114610200575f5ffd5b50565b5f81519050610211816101ed565b92915050565b5f6020828403121561022c5761022b6101b9565b5b5f61023984828501610203565b91505092915050565b61024b816101dc565b82525050565b5f6020820190506102645f830184610242565b92915050565b6116d7806102775f395ff3fe608060405234801561000f575f5ffd5b50600436106100b2575f3560e01c80639b931abf1161006f5780639b931abf14610165578063e82d657214610195578063e935b7b1146101b1578063f0f3f2c8146101cf578063f2fde38b14610202578063fc0c546a1461021e576100b2565b8063107046bd146100b65780635990765a146100e9578063715018a6146101055780637c695cc11461010f57806388685cd91461012b5780638da5cb5b14610147575b5f5ffd5b6100d060048036038101906100cb9190610eb1565b61023c565b6040516100e09493929190610f44565b60405180910390f35b61010360048036038101906100fe9190611012565b6102b2565b005b61010d610440565b005b61012960048036038101906101249190610eb1565b610453565b005b61014560048036038101906101409190610eb1565b61052d565b005b61014f610889565b60405161015c9190611083565b60405180910390f35b61017f600480360381019061017a91906111d4565b6108b0565b60405161018c919061121b565b60405180910390f35b6101af60048036038101906101aa9190611234565b6108e5565b005b6101b9610b5c565b6040516101c69190611272565b60405180910390f35b6101e960048036038101906101e49190610eb1565b610b62565b6040516101f99493929190610f44565b60405180910390f35b61021c6004803603810190610217919061128b565b610c75565b005b610226610cf9565b6040516102339190611311565b60405180910390f35b6003602052805f5260405f205f91509050805f015f9054906101000a900473ffffffffffffffffffffffffffffffffffffffff1690806001015f9054906101000a900473ffffffffffffffffffffffffffffffffffffffff1690806002015490806003015f9054906101000a900460ff16905084565b6102ba610d1e565b600482826040516102cc929190611358565b90815260200160405180910390205f9054906101000a900460ff1615610327576040517f08c379a000000000000000000000000000000000000000000000000000000000815260040161031e906113ca565b60405180910390fd5b60016004838360405161033b929190611358565b90815260200160405180910390205f6101000a81548160ff02191690831515021790555060015f9054906101000a900473ffffffffffffffffffffffffffffffffffffffff1673ffffffffffffffffffffffffffffffffffffffff166340c10f1985856040518363ffffffff1660e01b81526004016103bb9291906113e8565b5f604051808303815f87803b1580156103d2575f5ffd5b505af11580156103e4573d5f5f3e3d5ffd5b505050508373ffffffffffffffffffffffffffffffffffffffff167f9d89e36eadf856db0ad9ffb5a569e07f95634dddd9501141ecf04820484ad0dc8484846040516104329392919061143b565b60405180910390a250505050565b610448610d1e565b6104515f610da5565b565b60015f9054906101000a900473ffffffffffffffffffffffffffffffffffffffff1673ffffffffffffffffffffffffffffffffffffffff16639dc29fac33836040518363ffffffff1660e01b81526004016104af9291906113e8565b5f604051808303815f87803b1580156104c6575f5ffd5b505af11580156104d8573d5f5f3e3d5ffd5b505050503373ffffffffffffffffffffffffffffffffffffffff167ffd38818f5291bf0bb3a2a48aadc06ba8757865d1dabd804585338aab3009dcb6826040516105229190611272565b60405180910390a250565b5f60035f8381526020019081526020015f209050806003015f9054906101000a900460ff1615610592576040517f08c379a0000000000000000000000000000000000000000000000000000000008152600401610589906114b5565b60405180910390fd5b805f015f9054906101000a900473ffffffffffffffffffffffffffffffffffffffff1673ffffffffffffffffffffffffffffffffffffffff163373ffffffffffffffffffffffffffffffffffffffff16148061062057506105f1610889565b73ffffffffffffffffffffffffffffffffffffffff163373ffffffffffffffffffffffffffffffffffffffff16145b806106795750806001015f9054906101000a900473ffffffffffffffffffffffffffffffffffffffff1673ffffffffffffffffffffffffffffffffffffffff163373ffffffffffffffffffffffffffffffffffffffff16145b6106b8576040517f08c379a00000000000000000000000000000000000000000000000000000000081526004016106af9061151d565b60405180910390fd5b6001816003015f6101000a81548160ff02191690831515021790555060015f9054906101000a900473ffffffffffffffffffffffffffffffffffffffff1673ffffffffffffffffffffffffffffffffffffffff1663a9059cbb826001015f9054906101000a900473ffffffffffffffffffffffffffffffffffffffff1683600201546040518363ffffffff1660e01b81526004016107579291906113e8565b6020604051808303815f875af1158015610773573d5f5f3e3d5ffd5b505050506040513d601f19601f820116820180604052508101906107979190611565565b6107d6576040517f08c379a00000000000000000000000000000000000000000000000000000000081526004016107cd906115da565b60405180910390fd5b806001015f9054906101000a900473ffffffffffffffffffffffffffffffffffffffff1673ffffffffffffffffffffffffffffffffffffffff16815f015f9054906101000a900473ffffffffffffffffffffffffffffffffffffffff1673ffffffffffffffffffffffffffffffffffffffff16837f23a1f1d698899279655350f84344b87245426099e1c060807bd35275582d2d0e846002015460405161087d9190611272565b60405180910390a45050565b5f5f5f9054906101000a900473ffffffffffffffffffffffffffffffffffffffff16905090565b6004818051602081018201805184825260208301602085012081835280955050505050505f915054906101000a900460ff1681565b5f60025f8154809291906108f890611625565b91905055905060405180608001604052803373ffffffffffffffffffffffffffffffffffffffff1681526020018473ffffffffffffffffffffffffffffffffffffffff1681526020018381526020015f151581525060035f8381526020019081526020015f205f820151815f015f6101000a81548173ffffffffffffffffffffffffffffffffffffffff021916908373ffffffffffffffffffffffffffffffffffffffff1602179055506020820151816001015f6101000a81548173ffffffffffffffffffffffffffffffffffffffff021916908373ffffffffffffffffffffffffffffffffffffffff160217905550604082015181600201556060820151816003015f6101000a81548160ff02191690831515021790555090505060015f9054906101000a900473ffffffffffffffffffffffffffffffffffffffff1673ffffffffffffffffffffffffffffffffffffffff166323b872dd3330856040518463ffffffff1660e01b8152600401610a729392919061166c565b6020604051808303815f875af1158015610a8e573d5f5f3e3d5ffd5b505050506040513d601f19601f82011682018060405250810190610ab29190611565565b610af1576040517f08c379a0000000000000000000000000000000000000000000000000000000008152600401610ae8906115da565b60405180910390fd5b8273ffffffffffffffffffffffffffffffffffffffff163373ffffffffffffffffffffffffffffffffffffffff16827ff03bc2e49a83d942284cb30e1c2935d4b542e1e1e6456d28b5365ddb110a52a285604051610b4f9190611272565b60405180910390a4505050565b60025481565b5f5f5f5f5f60035f8781526020019081526020015f206040518060800160405290815f82015f9054906101000a900473ffffffffffffffffffffffffffffffffffffffff1673ffffffffffffffffffffffffffffffffffffffff1673ffffffffffffffffffffffffffffffffffffffff168152602001600182015f9054906101000a900473ffffffffffffffffffffffffffffffffffffffff1673ffffffffffffffffffffffffffffffffffffffff1673ffffffffffffffffffffffffffffffffffffffff16815260200160028201548152602001600382015f9054906101000a900460ff1615151515815250509050805f01518160200151826040015183606001519450945094509450509193509193565b610c7d610d1e565b5f73ffffffffffffffffffffffffffffffffffffffff168173ffffffffffffffffffffffffffffffffffffffff1603610ced575f6040517f1e4fbdf7000000000000000000000000000000000000000000000000000000008152600401610ce49190611083565b60405180910390fd5b610cf681610da5565b50565b60015f9054906101000a900473ffffffffffffffffffffffffffffffffffffffff1681565b610d26610e66565b73ffffffffffffffffffffffffffffffffffffffff16610d44610889565b73ffffffffffffffffffffffffffffffffffffffff1614610da357610d67610e66565b6040517f118cdaa7000000000000000000000000000000000000000000000000000000008152600401610d9a9190611083565b60405180910390fd5b565b5f5f5f9054906101000a900473ffffffffffffffffffffffffffffffffffffffff169050815f5f6101000a81548173ffffffffffffffffffffffffffffffffffffffff021916908373ffffffffffffffffffffffffffffffffffffffff1602179055508173ffffffffffffffffffffffffffffffffffffffff168173ffffffffffffffffffffffffffffffffffffffff167f8be0079c531659141344cd1fd0a4f28419497f9722a3daafe3b4186f6b6457e060405160405180910390a35050565b5f33905090565b5f604051905090565b5f5ffd5b5f5ffd5b5f819050919050565b610e9081610e7e565b8114610e9a575f5ffd5b50565b5f81359050610eab81610e87565b92915050565b5f60208284031215610ec657610ec5610e76565b5b5f610ed384828501610e9d565b91505092915050565b5f73ffffffffffffffffffffffffffffffffffffffff82169050919050565b5f610f0582610edc565b9050919050565b610f1581610efb565b82525050565b610f2481610e7e565b82525050565b5f8115159050919050565b610f3e81610f2a565b82525050565b5f608082019050610f575f830187610f0c565b610f646020830186610f0c565b610f716040830185610f1b565b610f7e6060830184610f35565b95945050505050565b610f9081610efb565b8114610f9a575f5ffd5b50565b5f81359050610fab81610f87565b92915050565b5f5ffd5b5f5ffd5b5f5ffd5b5f5f83601f840112610fd257610fd1610fb1565b5b8235905067ffffffffffffffff811115610fef57610fee610fb5565b5b60208301915083600182028301111561100b5761100a610fb9565b5b9250929050565b5f5f5f5f6060858703121561102a57611029610e76565b5b5f61103787828801610f9d565b945050602061104887828801610e9d565b935050604085013567ffffffffffffffff81111561106957611068610e7a565b5b61107587828801610fbd565b925092505092959194509250565b5f6020820190506110965f830184610f0c565b92915050565b5f5ffd5b5f601f19601f8301169050919050565b7f4e487b71000000000000000000000000000000000000000000000000000000005f52604160045260245ffd5b6110e6826110a0565b810181811067ffffffffffffffff82111715611105576111046110b0565b5b80604052505050565b5f611117610e6d565b905061112382826110dd565b919050565b5f67ffffffffffffffff821115611142576111416110b0565b5b61114b826110a0565b9050602081019050919050565b828183375f83830152505050565b5f61117861117384611128565b61110e565b9050828152602081018484840111156111945761119361109c565b5b61119f848285611158565b509392505050565b5f82601f8301126111bb576111ba610fb1565b5b81356111cb848260208601611166565b91505092915050565b5f602082840312156111e9576111e8610e76565b5b5f82013567ffffffffffffffff81111561120657611205610e7a565b5b611212848285016111a7565b91505092915050565b5f60208201905061122e5f830184610f35565b92915050565b5f5f6040838503121561124a57611249610e76565b5b5f61125785828601610f9d565b925050602061126885828601610e9d565b9150509250929050565b5f6020820190506112855f830184610f1b565b92915050565b5f602082840312156112a05761129f610e76565b5b5f6112ad84828501610f9d565b91505092915050565b5f819050919050565b5f6112d96112d46112cf84610edc565b6112b6565b610edc565b9050919050565b5f6112ea826112bf565b9050919050565b5f6112fb826112e0565b9050919050565b61130b816112f1565b82525050565b5f6020820190506113245f830184611302565b92915050565b5f81905092915050565b5f61133f838561132a565b935061134c838584611158565b82840190509392505050565b5f611364828486611334565b91508190509392505050565b5f82825260208201905092915050565b7f5061796d656e7420616c72656164792070726f636573736564000000000000005f82015250565b5f6113b4601983611370565b91506113bf82611380565b602082019050919050565b5f6020820190508181035f8301526113e1816113a8565b9050919050565b5f6040820190506113fb5f830185610f0c565b6114086020830184610f1b565b9392505050565b5f61141a8385611370565b9350611427838584611158565b611430836110a0565b840190509392505050565b5f60408201905061144e5f830186610f1b565b818103602083015261146181848661140f565b9050949350505050565b7f416c726561647920636f6d706c657465640000000000000000000000000000005f82015250565b5f61149f601183611370565b91506114aa8261146b565b602082019050919050565b5f6020820190508181035f8301526114cc81611493565b9050919050565b7f4e6f7420617574686f72697a65640000000000000000000000000000000000005f82015250565b5f611507600e83611370565b9150611512826114d3565b602082019050919050565b5f6020820190508181035f830152611534816114fb565b9050919050565b61154481610f2a565b811461154e575f5ffd5b50565b5f8151905061155f8161153b565b92915050565b5f6020828403121561157a57611579610e76565b5b5f61158784828501611551565b91505092915050565b7f5472616e73666572206661696c656400000000000000000000000000000000005f82015250565b5f6115c4600f83611370565b91506115cf82611590565b602082019050919050565b5f6020820190508181035f8301526115f1816115b8565b9050919050565b7f4e487b71000000000000000000000000000000000000000000000000000000005f52601160045260245ffd5b5f61162f82610e7e565b91507fffffffffffffffffffffffffffffffffffffffffffffffffffffffffffffffff8203611661576116606115f8565b5b600182019050919050565b5f60608201905061167f5f830186610f0c565b61168c6020830185610f0c565b6116996040830184610f1b565b94935050505056fea2646970667358221220a4789902886e4af66156641fdee8c60df0314db7f489bded31a7de82036fa85464736f6c63430008210033","linkReferences":{}},"methodIdentifiers":{"burnAndWithdraw(uint256)":"7c695cc1","createProject(address,uint256)":"e82d6572","depositAndMint(address,uint256,string)":"5990765a","getProject(uint256)":"f0f3f2c8","nextProjectId()":"e935b7b1","owner()":"8da5cb5b","processedPayments(string)":"9b931abf","projects(uint256)":"107046bd","releasePayment(uint256)":"88685cd9","renounceOwnership()":"715018a6","token()":"fc0c546a","transferOwnership(address)":"f2fde38b"},"id":29}